:020000040800F2
:10000000E810012039020008911B0008931B00082A
:10001000951B0008971B0008991B000800000000B2
:10002000000000000000000000000000A101000826
:100030009B1B000800000000E5010008F79800087D
:1000400071020008710200087102000871020008C4
:1000500071020008710200087102000871020008B4
:1000600071020008710200087102000871020008A4
:100070007102000871020008710200087102000894
:100080007102000871020008710200087102000884
:100090007102000871020008710200087102000874
:1000A0007102000871020008710200087102000864
:1000B000AF5D000871020008935E0008710200083D
:1000C0007102000871020008710200087102000844
:1000D00071020008BD4000085B4500080F6700087A
:1000E0007102000871020008710200087102000824
:1000F0007102000871020008710200087102000814
:100100007102000871020008710200087102000803
:1001100037580008710200087102000871020008D7
:1001200071020008710200087102000871020008E3
:1001300071020008710200087102000871020008D3
:1001400071020008710200087102000871020008C3
:1001500071020008710200087102000871020008B3
:1001600071020008710200087102000871020008A3
:100170007102000871020008710200087102000893
:100180007102000871020008DFF810D00DF0CEFCFB
:10019000004800475F180008AFF30080E810012016
:1001A000224B19680868B0E8F00F80F30988BFF3A4
:1001B0006F8F4FF0000080F311884EF00D0E7047E6
:1001C0000000000006480068006880F3088862B6F6
:1001D00061B6BFF34F8FBFF36F8F00DF00BF00BF6B
:1001E00008ED00E0EFF30980BFF36F8F0F4B1A6843
:1001F00020E9F00F106008B54FF0500080F311882F
:10020000BFF34F8FBFF36F8F07F0ECFF4FF000008D
:1002100080F31188BDE8084019680868B0E8F00F5D
:1002200080F30988BFF36F8F704700BF2001002063
:10023000EFF30580704700000E48016841F470013B
:100240000160BFF34F8FDFF83000016821F04041BB
:100250000160BFF36F8F0948804709480047FEE7F8
:10026000FEE7FEE7FEE7FEE7FEE7FEE7FEE7FEE766
:10027000FEE7000088ED00E034EF00E0270300080F
:10028000890100080CB500205449019000900A68CB
:1002900042F480320A604FF4A0430A6802F400324C
:1002A0000092019A521C0192009A12B9019A9A4244
:1002B000F3D10A68920334D50120009047484030BA
:1002C000026842F0805202604548026842F44042AF
:1002D00002604248083002680260026842F400424C
:1002E0000260026842F4A0520260031F3D4A1A6095
:1002F0000A6842F080720A600A689201FCD53A4AA4
:1003000040F205711160016821F00301016001688C
:1003100041F0020101600168C1F381010229FAD1B3
:100320000CBD00900CBD314810B5016841F470015E
:1003300001602A48016841F001010160274A00215B
:100340000832116002682A4B1A400260031D294AD4
:100350001A60026822F48022026020480C3001609A
:10036000FFF790FF21494FF000608039086010BD11
:1003700070B51A4C083420681F4A10F00C011F4851
:1003800004D05510042903D0082903D002601BE0D3
:10039000056019E01149091D0B68C3F380560B680D
:1003A00003F03F0316B1B5FBF3F201E0B2FBF3F249
:1003B0000B680968C3F388135A43C1F30141491C10
:1003C0004900B2FBF1F1016021680C4AC1F303114D
:1003D000121D515C0268CA40026070BD00380240C4
:1003E0000070004008544007003C024088ED00E0E7
:1003F000FFFFF6FE103000240024F400000000206F
:10040000FDA003F003FEFEE7D0E90010814201D118
:10041000486908B1002070470120704710B50446B4
:1004200018200FF0C3FA60602060002802D000217D
:100430004161012010BD10B5044618200FF0B6FA36
:10044000002807D000214161C160016161684861F5
:100450006060012010BD10B54168496969B102684A
:1004600051694B69536142688A4201D10268426016
:1004700008460FF073FA012010BD002010BD10B522
:100480000246FFF7C1FF20B1BDE81040E4A003F031
:10049000BDBD1068446903E020460FF05FFA64694F
:1004A000002CF9D110BD10B50B4604460268FFF7C9
:1004B000ABFF70B1BDE81040D9A003F0A7BD9842D2
:1004C00006D1586950616068984200D1626010BDE1
:1004D000024650690028F2D110BDD0E900108142D7
:1004E00001D1C86908B1002070470120704710B5DC
:1004F000044620200FF05AFA60602060002802D0E5
:100500000021C161012010BD10B5044620200FF06C
:100510004DFA00280CD00021C1610160416081606A
:10052000C1600161416181616168C86160600120F1
:1005300010BD10B54168C96969B10268D169CB695C
:10054000D36142688A4201D10268426008460FF0D6
:1005500005FA012010BD002010BD10B50B46044661
:100560000268FFF7BAFF90B1BDE81040B0A003F0F9
:100570004DBD98420AD1D869D0616068984200D1D7
:100580006260BDE8104018460FF0E8B90246D06935
:100590000028EED110BD70B500680D46446906E034
:1005A0000C22294620460CF008FE20B16469002C7C
:1005B000F6D1002070BD012070BD0025A2A003F07F
:1005C00025FDA9A003F022FDAA4EAB4FDFF8AC92A7
:1005D00003F0B7FE6D1CEDB20A2D02D3002503F027
:1005E000B4FE002414E000BF04EB840006EB80009E
:1005F00080460C22A2490CF0E0FD38B1D8F810007A
:100600000A2803D2012089F80F0007E0641CE4B235
:1006100038788442E8D3002189F80F104FF496709F
:1006200007F0FFFCD4E7002796A003F0EFFC9CA0A6
:1006300003F0ECFCDFF874928E4EDFF840824FF44A
:100640007A7A504607F0EDFC5FF0000404EB84007A
:1006500006EB800005460C2289490CF0AEFDC0B3C4
:10066000E8680A2826D998F81100294600288F48FA
:100670001DD0FFF790FFE8B98C48FFF7DCFE04EBD4
:10068000840006EB80027D4B07CA16334C4683E894
:100690000700D9F8043083E8070004F0DDF861684A
:1006A000C86004F0D9F875491631C861C9E7FFF789
:1006B00072FF98B198F8110058B100BF07EB87009E
:1006C00006EB80000069B0F5FA7F02D9002188F8B6
:1006D0001110641CE4B2062CB8D3B2E77348FFF7DC
:1006E000AAFE95E80E00D9F80400274680E80E001F
:1006F00004F0B2F8D9F80410C8606DA003F086FCCD
:10070000012188F81110D9E788B073A003F07EFCAE
:10071000DFF898A1DFF85C914FF47A7B584607F038
:1007200080FC554C6FA0217803F070FC5F48FFF708
:100730006BFE10B120780028F0D00026DAF8000017
:1007400001E0761CF6B240690028FAD15FF000059E
:1007500005EB850109EB8108D8F810000A2814D3AD
:10076000DAF800005746446906E040460C2221466C
:100770000CF023FD90B16469002CF6D140461421A1
:100780000CF0C7FC5BA003F041FC6D1CEDB2062D24
:10079000DED3DAF800004E464469D4E03868406998
:1007A000A042EBD1354FB87C0028E7D004F054F8D4
:1007B00020613E480830FFF7A7FEE0B13B4894E8CF
:1007C0000C100830416881E80C104068E168C16095
:1007D0002169C0E9041635496039C96C816194E822
:1007E0000D008DE80D00E06803902069CDE9040656
:1007F0000691684684E08BE05B4552524F525D2083
:10080000537461636B206F766572666C6F772069D5
:100810006E207461736B3A2025730D0A000000008E
:10082000E9989FE58897E4B8BAE7A9BA0D0A0000ED
:10083000E9B985E89B8BE9989FE58897E4B8BAE722
:10084000A9BA0D0A00000000526561644361726438
:100850005461736B204372656174652053756363E3
:100860006573730D0A0000005441534B2031210D74
:100870000A00000000060020980000209A030020D3
:1008800078060020546F74616C5461736B2043725E
:100890006561746520537563636573730D0A0000A9
:1008A0005441534B2032210D0A00000074000020F7
:1008B0004944312052454144205355434345535305
:1008C000202C696E74696D6520736176652073757F
:1008D00063636573730D0A005441534B2033210D3C
:1008E0000A000000636172645F636E743A25640DF0
:1008F0000A000000476F6F7365204F55540D0A00C2
:1009000004F07CFCF4A003F081FBFEA003F07EFB6E
:10091000B87C401EB874584607F083FB43E70025B7
:1009200005EB850006EB80000C2221460CF045FC0F
:1009300068B16D1CEDB2062DF2D32146F54865690C
:10094000FFF7B1FD2C46002C3FF4E8AEE7E7646901
:10095000F9E708B54FF47A76304607F062FBEEA06F
:1009600003F054FBEB48FFF74FFD00281DD1EDA02D
:1009700003F04CFBE74801270068446913E039465F
:10098000EEA003F043FB0025F0A0615D03F03EFB09
:100990006D1C0C2DF8DBD4E90312EEA003F036FB3E
:1009A00064697F1CFFB2002CE9D1DA480830FFF7F8
:1009B00094FD0028D0D1EEA003F028FBD5480830E4
:1009C00001270068C46916E03946EEA003F01EFB5B
:1009D0000025DEA0615D03F019FB6D1C0C2DF8DB1A
:1009E000A069009004F10C01E9A00EC903F00EFB10
:1009F000E4697F1CFFB2002CAED0E5E7F2A003F063
:100A000005FBDFF8D083F44C41F288364FF47A7757
:100A10000125384607F005FB0121404601F0E8F9C1
:100A200078B1322007F0FDFA207830B9257007F050
:100A300098FD6060E9A003F0E9FA2078012803D06E
:100A400017E00020207014E007F08BFD6168401A69
:100A5000B0420ED3207B60B9EB482573817C491CE2
:100A6000817403F0F9FEAB496039C864E7A003F074
:100A7000CDFA207B0128CCD140F2DC51EE4802F0C7
:100A8000C0FDEEA003F0C2FAC3E741F28835EDA045
:100A900003F0BCFADFF83C83CF4CDFF89CA34FF4A3
:100AA0007A7700264FF4FA79384607F0BAFA01212E
:100AB000404601F09DF960B9322007F0B2FA207883
:100AC000012806D1267007F04CFDA060E0A003F0DD
:100AD0009DFA207860B907F044FDA168401AA84249
:100AE00006D3207B012803D12673E5A003F08EFAFC
:100AF000207B0028D8D14946504602F082FDE9A06B
:100B000003F084FAD0E7E9A003F080FA814CDFF823
:100B1000B893603CDFF8B483002504F1680700BF98
:100B200004F054FE04F06CFE7A480830FFF7D5FC60
:100B300040B1A5706570E57099F800004E46032835
:100B40000BD05EE03868C069A57003E0A178491C4D
:100B5000A170C0690028F9D1EEE73570A278002AAB
:100B60004CD0E078012818D00120E0706570D8A042
:100B700003F04CFAA4482C213A300CF0CAFAA248EF
:100B800005213A30002380F8291080F828500146CA
:100B90001A46606D06F02DFA0BE06078401CB0FB41
:100BA000F2F102FB1100C1B26170D1A0491C03F047
:100BB0002DFA9548962196380CF0ABFA386800214A
:100BC0006278C06902E0C069491CC9B2C8B19142EB
:100BD000F9D3012105F0C0FA8B48963805F0FAFAEE
:100BE0008949D0A0963903F011FA8748963804F065
:100BF0004CFDA178607804F082FD02E0CBA003F008
:100C000005FA98F80010002924D03178022921D162
:100C1000357088F80050CCA003F0F8F904F0D2FD4C
:100C200004F020FBD4A003F0F1F9D3A003F0EEF917
:100C3000DA48D0F8F01ADAA003F0E8F93868C069A9
:100C400003E0C6690EF08AFE30460028F9D1386804
:100C5000C56178604FF47A7007F0E3F960E7F4B0AB
:100C600001264FF0000BB1465D46DCA04F9603F025
:100C7000CDF940F6B83007F0D4F9DFF898800022BB
:100C8000A8F160085DA94446D8F8580006F0B8FC01
:100C9000002268A9606D06F0B3FC01204FF0000A45
:100CA0008DF84D008DF84CA00346524609A9606DA1
:100CB00006F09FF909A805F064FE04208DF84D00A8
:100CC0000123002209A9606D06F093F909A805F037
:100CD00058FE11A990E10000476F6F7365206F7592
:100CE0007474696D65207570646174656420616EEB
:100CF0006420736176656420746F20466C6173684C
:100D00000D0A000045676720646174612073617695
:100D100065640000740000205441534B34210D0AD7
:100D2000000000003D3D3D20474F4F5345205155A9
:100D3000455545203D3D3D0D0A000000476F6F734E
:100D4000652025643A2049443D0000002530325892
:100D5000000000002C20696E74696D653D256C757E
:100D60002C206F757474696D653D256C750D0A00D6
:100D70003D3D3D20454747205155455545203D3D8A
:100D80003D0D0A004567672025643A2049443D002F
:100D90002C20696E74696D653D256C752C206F750E
:100DA0007474696D653D256C752C20636F756E7468
:100DB0003D25642C2074696D657374616D703D25EB
:100DC0006C750D0A000000005441534B2035210D75
:100DD0000A00000000000240D40100204255545493
:100DE0004F4E20686173206265656E207072657376
:100DF000736564202C20737461727420636F756E48
:100E000074696E670D0A00009A0300203130207368
:100E100065636F6E647320726561636865642C201E
:100E200065676720726561647920746F20656E74F0
:100E300065720D0A00000000000800403930E380B0
:100E4000820D0A005441534B2036210D0A00000048
:100E5000425554544F4E20686173206E6F74206267
:100E600065656E20707265737365642C20737461A0
:100E7000727420636F756E74696E672E0D0A0000C0
:100E800057414954494E4720666F7220352073659B
:100E9000636F6E6473212072657475726E3A300DE3
:100EA0000A0000000A306475200D0A0053686F774D
:100EB0005461736B2043726561746520537563637D
:100EC0006573730A00000000EC000020A8000020F9
:100ED000E8BF9BE585A5E4BA8CE7BBB4E7A081E653
:100EE00098BEE7A4BAE6A8A1E5BC8F0D0A000000F1
:100EF000E58887E68DA2E588B0E7ACAC2564E4B868
:100F0000AAE89B8BE79A84E4BA8CE7BBB4E7A0819C
:100F1000EFBC8CE585B12564E4B8AAE89B8B0D0A8B
:100F20000000000071723A25730A0000E6B2A1E6E3
:100F30009C89E89B8BE4BFA1E681AFE58FAFE69883
:100F4000BEE7A4BA0D0A0000E5B7B2E6B885E99994
:100F5000A4E58685E5AD98E9989FE58897E5928CAC
:100F6000466C617368E9989FE58897E79A84E4BFC7
:100F7000A1E681AF000000004567672071756575C7
:100F80006520686973746F726963616C2064617451
:100F90006120636C65617265640D0A009006002033
:100FA000E9AA8CE8AF81E6B885E999A4E7BB93E6A6
:100FB0009E9C3A206567675F71756575655F6172B4
:100FC0007261792E4567675F71756575655F6C65E0
:100FD0006E677468203D2025640D0A004C6F7261B5
:100FE0005461736B2043726561746520537563634C
:100FF0006573730A000000000DF131004E912890D6
:1010000029A803F0E5FC2A980F2801D02D2801D14A
:10101000012D04D0102811D02E280FD010E000256B
:1010200004208DF84D002B462A4609A9D8F8540013
:1010300005F0DFFF09A805F0A4FC01E005B90125D2
:101040002B980E2802D00F2816D011E0012E5DD16A
:1010500001208DF84D008DF84CA000231A4609A9F7
:10106000D8F8540005F0C5FF09A805F08AFC002651
:101070002B98032803D024E046BB012646E0B9F1B3
:10108000010F43D14446D8F8500006F0DEFB70B99A
:1010900017E0002209A9206D06F068F900231A461E
:1010A00009A9606D05F0A5FF09A805F06AFC206D8F
:1010B00006F0CBFB0028ECD181462B9804280BD0FE
:1010C00002E02B98042802D005281BD01EE0B9F1BD
:1010D000000F01D14FF001094F98012816D1FEA051
:1010E0002B9902F093FF05208DF84D0000231A463E
:1010F00009A9D8F8540005F07CFF09A805F041FCC7
:10110000002002E04F9808B901204F90F54C20785C
:1011100001282A980ED0C01B3C2190FBF1F201FB64
:101120001200022801DB05F0CEF94FF47A7006F0C8
:1011300078FF65E7B84274D00746D8F8580006F043
:1011400084FB08B14FF0010B002209A9D8F8540024
:1011500006F00CF9012863D19DF84D0006287DD2D8
:10116000DFE800F07C03083F606BDF49DFA005F09B
:1011700000FB41E010A80BF049FD0346C8F80C0045
:10118000E3A2502135A80BF001FE4E980BF03EFD76
:101190000346C8F81000DEA2502114A80BF0F6FD9B
:1011A0000DF1140C1298D04B14AA35A98CE80F003D
:1011B0009DF839000DF1040C9DF83C309DF83B2062
:1011C0009DF83A108CE80F009DF82F0000909DF8D4
:1011D0002E309DF82D209DF82C10D14805F0C9FA2D
:1011E0000AE04E980BF012FD0346C8F81000C8A2A2
:1011F000502114A80BF0CAFD00231A4609A9D8F8FB
:10120000580005F0F6FE09A805F0BBFB04208DF898
:101210004D000123002209A9D8F8540005F0E9FE89
:101220001CE068E252A803F03BFBAF4ABDA0D8F82F
:10123000081005F09EFA012510E0AB49C5A005F0A5
:1012400098FA00231A4609A9D8F8580005F0D1FEEB
:10125000D8F8540006F0F9FA002869D009A805F07A
:1012600090FB4FF47A7006F0DCFE002209A9D8F852
:10127000580006F0C5F9C0A1C1480BF061FFE0B30A
:101280009DF84D0001284CD0BEA1BD480BF058FF81
:101290000B30222100900BF071FF014600980A1AD2
:1012A000501C01920EF082FBDDE9001202900BF05F
:1012B00059FFDDE9010202F800A002980BF0DBFF04
:1012C000B3A1AF480BF03CFF09307D2101900BF03A
:1012D00055FF01460198081A0390401C0EF066FB6A
:1012E0000090039A01990BF03DFF0099039801F8D3
:1012F00000A000980BF0BFFF00E012E0C8F8080063
:1013000000980BF0B8FF4FF461614143A3A0C8F807
:10131000041008F046FE00980EF020FB02980EF034
:101320001DFB09A805F02DFBBBF1010F08D0E0E182
:1013300009A805F026FB04208DF84D00002369E77D
:101340004FF0000B5A4609A9D8F8580006F00EF8DD
:101350000128ECD19DF84D00012806D0022874D058
:10136000032870D00528E2D1C8E18548D0F8C8002C
:10137000002869D080A182480BF0E2FE0028F8D056
:101380007F4880A1D0F8C82000F802A00BF0D8FE5A
:101390000B30222102900BF0F1FE01460298091A4F
:1013A000481C00910EF002FB0190009A02990BF08C
:1013B000D9FEDDE9000101F800A001980BF05BFF08
:1013C0003C30049072A16E480BF0BAFE09307D21CA
:1013D00003900BF0D3FE01460398091A481C0291B2
:1013E0000EF0E4FADDE9022100900BF0BBFE029959
:1013F000009800F801A000980BF03DFFC8F8080025
:1014000000980BF038FF4FF4616148430146C8F87B
:10141000040062A008F0C5FD04A80BF0F7FB002152
:10142000049803F06EFA00980EF098FA019815E10E
:1014300000231A4609A9D8F8540022E109A805F0AA
:10144000A0FA56E101E01FE18CE14D48D0F8C80058
:1014500000283FD055A14A480BF072FE002839D031
:1014600054A147480BF06CFE00F1090100912221C4
:1014700000980BF083FE0099401A0190401C0EF07A
:1014800095FADDE9001203900BF06CFE03990198C8
:1014900001F800A04AA13A480BF052FE093022217F
:1014A00001900BF06BFE01460198081A0090401C59
:1014B0000EF07CFADDE9002102900BF053FE029958
:1014C000009801F800A09DF82F109DF82E00CDE99E
:1014D00000017BE0C5E000006E6F77743A25642C54
:1014E0000A000000F6000020BC1500207B22747961
:1014F0007065223A2231222C2264617461223A7B87
:101500007D2C226E6964223A222573227D00000020
:1015100025592D256D2D25642025483A254D00009F
:10152000680001087B2274797065223A2234222CEB
:101530002264617461223A7B227774696D65223A74
:10154000222564227D2C226E6964223A2225732290
:101550007D0000007B2274797065223A2235222CAE
:101560002264617461223A7B7D2C226E6964223A86
:10157000222573227D00000073797374696D650004
:10158000F01400202273797374696D65223A220089
:101590002C227774696D65223A00000074696D65CC
:1015A0005F6E657374696E67000000006C72666937
:1015B00064000000226C72666964223A2200000016
:1015C000227272666964223A220000009DF82D3072
:1015D0009DF82C20F3A109A80CF04AFD9DF83C10C1
:1015E0009DF83B00CDE900019DF83A309DF8392087
:1015F000ECA128980CF03CFD0298009009A9EEA0FF
:10160000289B039A02F002FD09A803990BF098FDAC
:1016100050B1029928980BF093FD28B1EAA002F08E
:10162000F5FC8DF84CA015E09DF84C004FF0000340
:10163000401CC0B28DF84C0002281A4609A902D8F5
:10164000D8F8540001E0D8F8500005F0D2FC09A801
:1016500005F097F902980EF081F903980EF07EF9E3
:1016600047E09DF84C00401CC0B28DF84C000228A9
:101670007FF6DEAE8DF84CA000231A4609A9D8F8F3
:10168000500005F0B6FCD9E6D248D0F8C80008B33F
:10169000D1A1D0480BF054FDE0B1D1A1CD480BF061
:1016A0004FFD09307D2102900BF068FD0146029844
:1016B000091A481C01910EF079F90090DDE9012129
:1016C0000BF050FDDDE9000100F801A000980BF0DF
:1016D000D2FD5AE09DF84C00401CC0B28DF84C0081
:1016E000022806D800231A4609A9D8F8540005F0A4
:1016F00080FC04F0E8FE84F800A081E4B548D0F84E
:10170000C80078B3B9A1B3480BF01AFD50B3BAA121
:10171000B0480BF015FD0C30222102900BF02EFD8D
:101720000299401A0190401C0EF040F90090DDE94A
:1017300001210BF017FDDDE9000100F801A0D8F848
:101740005C10029100980BF096FDC8F85C000299BD
:10175000884208D04FF49071AB480BF0DAFC88F85F
:1017600000A00FE013E09DF84C00401CC0B28DF8C3
:101770004C00022806D800231A4609A9D8F85400BC
:1017800005F037FC09A805F0FCF8009866E79DF81D
:101790004C00401CC0B28DF84C0002283FF673AFDD
:1017A00046E62DE9FC4199480524CDE900404FF477
:1017B000806500232A4696A1994806F0ECF99348E3
:1017C0000023001DCDE900402A4696A1984806F066
:1017D000E2F98E4803240830CDE9004002260023B8
:1017E0002A4694A1974806F0D6F988486F100C3025
:1017F000CDE9004000233A4693A1974806F0CBF983
:10180000824804241030CDE9004000233A4693A1D9
:10181000AFF6176006F0BFF97C483A461430CDE9C0
:101820000040002391A1AFF69D5006F0B4F977482F
:1018300000231C30CDE900602A4690A1924806F0B2
:10184000AAF9724907201831CDE90001002362028C
:101850008EA1914806F09FF90820BDE8FC8102F0B6
:1018600067FB04F02EFF012005F074FC674C143C6C
:101870006063012005F06EFCA063012005F06AFCA6
:10188000E063012005F066FC2064012005F062FCA5
:101890006064012005F05EFCA06400222C2114206D
:1018A00005F0CDFA206500222C21142005F0C7FA9E
:1018B000606500222C21142005F0C1FAA06504F017
:1018C0000FFC532140F2CF7004F0BAFB09F0FAFF8D
:1018D00004F16000FEF7A2FD04F16800FEF707FEC8
:1018E00002F027FD03F0EEFF04F0A2FA03F038FC4B
:1018F0006AA002F08BFB73A002F088FB0025794FF1
:1019000042E0691CAFF6CC3002F080FBC5EBC500AD
:10191000002607EB800426A0A15D02F077FB761C71
:101920000C2EF8DB6EA002F071FB6FA0E16802F0F4
:101930006DFB72A0216902F069FB75A0616902F07C
:1019400065FB78A0A16902F061FB65A002F05EFB77
:101950007A480078A0B12D485430FEF7D5FD78B113
:101960002A4894E80E005430406880E80E00E16890
:10197000C1602169016161694161A169816102E020
:101980006FA002F043FB6D1CD7F8F00AA842B8DC48
:10199000FFF707FF062802D175A002F037FB06F01B
:1019A000A4FDFEE725303258253032582530325814
:1019B000253032580000000069643A25732C2573E5
:1019C0002C25732C25730A00746573745F676F6F21
:1019D000640A0000F01400206578747970650000D6
:1019E00022657874797065223A00000074616B6535
:1019F00074696D65000000002274616B6574696D27
:101A000065223A2200000000E401002028000020A6
:101A100052656164436172645461736B000000003D
:101A2000BB050008546F74616C5461736B00000057
:101A3000270600084944696E616E646F75745461CD
:101A4000736B000009070008446174617465737466
:101A50005461736B000000005309000850574D5F3C
:101A600053544152545F5461736B000050574D5FA3
:101A70004241434B5F5461736B00000053686F77C2
:101A80005461736B00000000070B00084C6F72611B
:101A90005461736B000000005F0C0008476F6F73A8
:101AA0006520717565756520696E697469616C6919
:101AB0007A65642066726F6D20466C6173680D0AEA
:101AC000000000003D3D3D204567672051554555CC
:101AD000452046524F4D20464C415348203D3D3D08
:101AE0000D0A0000900600206567675F696E7469E3
:101AF0006D65203A20256C750D0A00006567675FEB
:101B00006F757474696D653A20256C750D0A000057
:101B1000676F6F73655F636F756E743A20256C75C0
:101B20000D0A00006567675F74696D657374616DA8
:101B3000703A20256C750D0A00000000A8000020F6
:101B40004661696C656420746F2061646420656718
:101B5000672066726F6D20466C61736820746F2019
:101B60006D656D6F7279207175657565210D0A005F
:101B70005461736B7320637265617465642073755F
:101B8000636365737366756C6C790D0A0000000001
:101B90007047FEE7FEE7FEE7FEE770472849084387
:101BA00028490860704730B50F22C47801780123B6
:101BB000FCB1244C246801F1E02104F4E064C4F594
:101BC000E064C4F30724C4F10405E2404478AC4067
:101BD0008578154025432A0181F80024007800F01B
:101BE0001F018B404009800000F1E020C0F8003167
:101BF00030BD01F01F0083404809800000F1E02063
:101C0000C0F8803130BD104A114001430D48001F1B
:101C1000016070470B4A121D0029116801D0014371
:101C200000E08143116070474FF0E021042808690B
:101C300003D020F004000861704740F00400FAE788
:101C40000000FA050CED00E080FFFF1F824910B58F
:101C5000884206D10121084600F039FB002101200D
:101C60005BE07E49884206D10121022000F02FFB73
:101C70000021022051E07A49884206D10121042046
:101C800000F025FB0021042047E07649884206D178
:101C90000121082000F01BFB002108203DE07249D3
:101CA000884206D10121102000F011FB00211020F4
:101CB00033E06E49884206D10121202000F007FB65
:101CC0000021202029E06A49884206D101214020D4
:101CD00000F0FDFA002140201FE06649884206D14D
:101CE0000121802000F0F3FA0021802015E06249F4
:101CF000884202D1012184150AE06049884202D15C
:101D00000121441504E05E4988420AD101210415ED
:101D1000204600F0DCFA00212046BDE8104000F02B
:101D2000D6BA10BDF0B50023012403270D6804FACC
:101D300003F21540954242D1D0F800C05E0007FA88
:101D400006F52CEA050CC0F800C091F804C0D0F8E4
:101D500000E00CFA06FC4CEA0E0CC0F800C091F84A
:101D600004C0BCF1010F02D0BCF1020F1FD1D0F8AA
:101D700008C02CEA050CC0F808C091F805C0D0F8DE
:101D800008E00CFA06FC4CEA0E0CC0F808C0D0F8CB
:101D900004C02CEA020CC0F804C0426891F806C0E6
:101DA0000CFA03FC1FFA8CFC42EA0C024260C26887
:101DB000AA43C260CA79C568B2402A43C2605B1CAC
:101DC000102BB3D3F0BD4FF6FF71016000210171FC
:101DD00041718171C171704708B541F48032009240
:101DE000C261C1610099C161C169C069009008BD4B
:101DF0000246002012690A4200D0012070470069A3
:101E000080B270470246002052690A4200D0012089
:101E10007047406980B270478161704709048161F1
:101E200070470AB1816170470904FBE7416170475F
:101E300042694A40426170474B07DB0E9A40C9082D
:101E400010B500EB8100016A0F249C40A1430162A0
:101E5000016A1143016210BD00000240000402400B
:101E600000080240000C0240001002400014024032
:101E700000180240001C02400020024000240240E2
:101E80000028024010B501210C07204600F03DFA61
:101E90002046BDE81040002100F037BA3B490862F7
:101EA00070473B4A116821F0E0010143116070471F
:101EB0003649086170473549C1F8A0007047334979
:101EC000C1F8A4007047324A116821F4404101432F
:101ED000116070472D49086470472C494864704769
:101EE0002B490028086802D040F4402001E020F48B
:101EF000402008607047254948627047244B10B560
:101F00001A6840F60344A24302431A60214802685B
:101F100042F004020260012905D020BF016821F0CF
:101F20000401016010BD30BFF8E7194B10B51A6805
:101F300040F60344A24302431A601648026842F086
:101F400004020260012905D020BF016821F00401CC
:101F5000016010BD30BFF8E70D48016841F0020193
:101F600001600C48016841F00401016030BF704716
:101F7000074A0146002052680A4200D001207047FB
:101F800003490A6842EA80000860704700000E4278
:101F90000070004010ED00E0F848016841F00101D8
:101FA0000160F64A0021083211600268F44B1A40C1
:101FB0000260031DF34A1A60F04BF34A84331A603F
:101FC000F04A103A1B1D1A60026822F48022026057
:101FD000EA480C300160181D01607047E749002293
:101FE000891C0A70087070470246002051090129B7
:101FF0000CD002290CD0E1497431096802F01F02AB
:10200000012393400B4200D001207047DB49F4E7E5
:10201000DA497031F1E718B500204FF4A044009080
:102020003120FFF7E1FF0099491C0091A14201D046
:102030000028F5D03120FFF7D7FF002800D001207D
:1020400018BDCE490A6822F0F80242EAC0000860D2
:102050007047CE4908607047C849002270310A7045
:102060000A70012802D0042801D1052008707047A9
:10207000C7490860704741EA82115A0810B5C54B3C
:10208000029C03EB02421143014341EA0460BB4955
:10209000091D086010BDBD4908667047800140EA0F
:1020A0000170B649843108607047B8498866704746
:1020B000800140EA0160B14940EA0270883108605D
:1020C0007047B24908677047B049C8647047AB4A67
:1020D00008321368084323F0EC631843106070471C
:1020E000A64A08321368084323F078431843106067
:1020F0007047A24A0832116821F0030101431160C0
:1021000070479E480830006800F00C0070479B4AFA
:102110000832116821F0F001014311607047974ABD
:102120000832116821F4E05101431160704793496E
:1021300008310A6822F4604242EAC0000860704731
:1021400070B58E4A08321168934C11F00C0104D01E
:102150006610042903D0082903D004601BE0066040
:1021600019E08649091D0B68C3F380550B6803F01D
:102170003F0315B1B6FBF3F301E0B4FBF3F30C68D6
:102180000968C4F388146343C1F30141491C490041
:10219000B3FBF1F1016011680F2303EA11117F4BCA
:1021A0005C5C0168E14041601468072505EA9424FD
:1021B0001C5D21FA04F48460126805EA52329A5CCC
:1021C000D140C16070BDC0F30121032908D16B4A21
:1021D0000832116821F4F813714901401943116064
:1021E000664970310A68C0F30B0002430A60704709
:1021F000674944390860704765494039086070474D
:102200006249C1F85C0170475C4A8C32116821F464
:102210004011014311607047584A8C32116821F413
:102220004001014311607047544A8C321168401ECE
:1022300021F01F0101431160704750498C310A6839
:102240006FF0FF0322F4F85203EB00201043086004
:1022500070474A4A8C32116821F4403101431160C1
:1022600070475049C1F8E0017047444A30320029B4
:10227000116801D0014300E08143116070473F4A7B
:1022800034320029116801D0014300E0814311601C
:1022900070473A4A38320029116801D0014300E002
:1022A000814311607047354A40320029116801D0DE
:1022B000014300E0814311607047304A44320029F5
:1022C000116801D0014300E08143116070472B4A3F
:1022D00010320029116801D0014300E081431160F0
:1022E0007047264A14320029116801D0014300E0EA
:1022F000814311607047214A18320029116801D0CA
:10230000014300E08143116070471C4A20320029DC
:10231000116801D0014300E0814311607047174A02
:1023200024320029116801D0014300E0814311608B
:102330007047124A50320029116801D0014300E071
:102340008143116070470D4A54320029116801D051
:10235000014300E0814311607047084A5832002968
:10236000116801D0014300E0814311607047034AC6
:1023700060320029116817D0014316E0003802408E
:10238000FFFFF6EA10300024003000200000474232
:10239000800E47420000FFFF0024F400840000206C
:1023A000FFFCFF0F00104742814311607047194A3C
:1023B0000029116801D0014300E08143116070479A
:1023C00014490C310128086803D020F00800086087
:1023D000704740F00800FAE70E4A573A0029117892
:1023E00001D0014300E0814311707047094810306B
:1023F000016841F08071016070470146054A002084
:10240000583A12680A4200D00120704701495639F3
:10241000087070476438024018B50020FB490090EE
:10242000CA20086053200860F8481838026822F073
:10243000A00202604FF400340268009B02F0200208
:102440005B1C0093A34201D0002AF5D000688006EF
:1024500001D5012000E00020FF220A6018BD08B568
:1024600000200090E94818380168490612D44FF05E
:10247000FF31016083130168009A01F04001521C92
:1024800000929A4201D00029F5D00068400601D49C
:10249000002008BD012008BD78B50024DB4ECA200D
:1024A00000942546306053203060FFF7D8FFE0B33A
:1024B000D64824380460D54942F20110203908601A
:1024C000091D086800F0070008608D13081D0268E8
:1024D000009B02F004025B1C0093AB4201D0002A77
:1024E000F5D00268520729D50A680C60C74A4FF632
:1024F000FF71103A1160121FC5491160C3490C39B0
:102500000C60091D0C60091D0C60C04908310C608D
:10251000BE4918310C60BD4920310C60091D0C60AA
:102520000460BA481C30046000E003E0FFF774FF69
:1025300020B10125FF203060284678BD0025F9E74D
:10254000B2481838016821F080010160704770B509
:10255000AE4E04460025CA20306053203060FFF79D
:102560007EFFA8B1A9481C38016821F04001016034
:102570000168226811430160A448A1681438016011
:102580000168A28841EA02410160FFF7D9FF0125F5
:10259000FF203060284670BD002101607F2141602E
:1025A000FF2181607047994908B1FF2002E0CA20ED
:1025B000086053200860704770B5944C06460025AB
:1025C000CA20206053202060FFF749FF60B18F4888
:1025D0001C38016816B141F0100101E021F0100132
:1025E0000160FFF7ADFF0125FF202060284670BD88
:1025F000864ACA2111605321116084491C39002880
:10260000086802D040F0200001E000F0DF00086020
:10261000FF20106070472DE9F0417E4F0C4602000C
:102620004FF0000620783A6831464FEA426204D003
:10263000002A15DA00F009FC13E0002A00DBE17043
:1026400000F0F7FB0504607800F0F3FB45EA002595
:10265000A07800F0EEFB0543E07845EA00450AE08B
:10266000E170A078217840EA01456078E1780002C5
:1026700040EA01400543654CCA2020605320206099
:10268000FFF7EDFE68B16448054062480838056010
:10269000FFF756FF3868800602D4FFF7BDFE00B191
:1026A0000126FF2020603046BDE8F0810021C17086
:1026B000017041708170704710B50C46554908395A
:1026C0000968554A1140C1F305422270C1F306233F
:1026D000637001F07F03A370402303EA1141E170AE
:1026E00000280BD1104600F0B0FB2070607800F09D
:1026F000ACFB6070A07800F0A8FBA07010BD434850
:10270000001D00684349091F0968704770B50C46F1
:10271000010060784FF0000629D000F096FBA07809
:1027200000F093FBA078E17840EA014560782178D9
:10273000000240EA41300543344CCA202060532057
:102740002060FFF78CFE70B1344805403148001F0F
:102750000560FFF7F5FE2F480068800602D4FFF7FA
:102760005BFE00B10126FF202060304670BDC1062F
:1027700003D520F010000A306070E07800F059FBBB
:102780000504607800F055FB45EA0025A07800F0CC
:1027900050FB0543207845EA4035CDE70121017023
:1027A000817041700021C170704710B50C46194905
:1027B000091F0968194A11400A0CE270C1F3042389
:1027C000637001F03F03A370C1F342312170002810
:1027D0000BD1104600F039FBE070607800F035FB5B
:1027E0006070A07800F031FBA07010BD70B5144689
:1027F0000D46084A0021002810684FEA40600FD0BB
:10280000002826DA207800F020FB23E0242800406E
:10281000FF007F00082800407F7F7F003FFFFF0010
:10282000002800DBE170207800F003FB06046078EC
:1028300000F0FFFA46EA0026A07800F0FAFA064314
:10284000E07846EA0046207B00F0F3FA46EA0060B2
:1028500010E0E170207B00F0F8FAA0782178E278AF
:1028600040EA01406178090241EA02410843217BC4
:1028700040EA0160A168FA4A084361680843CA2136
:10288000116053211160B5F5807F04D0111F0860DD
:10289000FF20106070BDF2490839F8E70021C170CF
:1028A0000170417081700122816002734160704744
:1028B00010B51446B1F5807F2BD0E949091F09688E
:1028C000C1F305422270C1F30623637001F07F0358
:1028D000A370402303EA1143E370C1F3056323733C
:1028E00001F0804301F08031C4E9011300280FD1C9
:1028F000104600F0AAFA2070607800F0A6FA607026
:10290000A07800F0A2FAA070207B00F09EFA20735D
:1029100010BDD3490839D2E738B50022D04B009218
:10292000CA221A6053221A60CD4A1C3A0029116843
:1029300002D00143116012E081431160C84A183A85
:1029400095131168009C01EA1021641C0094AC42AC
:1029500001D00029F5D0116811EA102000D0012023
:10296000FF21196038BD10B5BD4BCA241C6053242B
:102970001C601143B0F5807F05D0B9482430016058
:10298000FF20186010BDB6482030F8E7B0F5807F12
:1029900005D0B34824300068C0F30E007047B0483B
:1029A0002030F8E7AE4ACA21116053211160AC49CA
:1029B0001C390B6823F007030B600B6803430B60A3
:1029C000FF2010607047A649CA220A6053220A609D
:1029D000A34A103A1060FF2008607047A0481038E2
:1029E000006880B2704718B500219D4A0091CA2145
:1029F0001160532111609A491C390028086803D0DE
:102A000040F48060086014E020F48060086094481E
:102A1000183884130168009B01F004015B1C0093CB
:102A2000A34201D00029F5D00068400701D400205E
:102A300000E00120FF21116018BD894B10B5CA22AA
:102A40001A6053221A60864A1C3A146824F48024BF
:102A500014601468084304431460FF20186010BD1C
:102A60007F481C38006800F4802070477C4B10B50C
:102A7000CA221A6053221A60794A1C3A146824F454
:102A8000E00414601468084304431460FF201860D5
:102A900010BDF0B5724C07460025CA200E462060D6
:102AA00053202060FFF7DBFC30B16D4837430C3812
:102AB0000760FFF745FD0125FF2020602846F0BD97
:102AC00070B5674C06460025CA2020605320206060
:102AD000FFF7C5FC60B162481C38016816B141F0CF
:102AE000800101E021F080010160FFF729FD01254F
:102AF000FF202060284670BD594ACA211160532129
:102B0000116057491C390028086802D040F40000C1
:102B100001E020F400000860FF2010607047504A78
:102B2000CA211160532111604D491C390B6823F4EF
:102B300000230B600B6803430B60FF20106070479D
:102B4000F0B5474B0024CA251D6053251D60444D38
:102B5000183D2E68F60308D54FF400362F68FF03A2
:102B600003D5B44201D0641CF8E72C68E40306D412
:102B700008433B49104318310860012000E0002061
:102B8000FF211960F0BD364B10B51C3B1A6840F6AA
:102B90000804A24342EA000209B142F4006230484C
:102BA000CA210160532101601A60FF21016010BD3C
:102BB00070B50D462A4914460C310968294A11405E
:102BC000274A103212684FF63F731A40C1F305438B
:102BD0002B70C1F306236B7001F07F03AB704023B1
:102BE00003EA1141E9700021E170C2F30421617030
:102BF00002F03F01A170C2F342312170002817D1C9
:102C0000287800F022F92870687800F01EF96870C2
:102C1000A87800F01AF9A870607800F016F96070D2
:102C2000A07800F012F9A070207800F00EF9207062
:102C300070BD0B48143000687047094A1C320029E7
:102C4000116803D041EA40001060704721EA40005B
:102C5000FAE7034A1C320029116805D0014304E059
:102C6000242800407F7F7F008143116070477B49AB
:102C70000A6822F4C0520A600A6802430A60704778
:102C800076490A6822F4E0620A600A6802430A6030
:102C9000704772490A6822F4C0420A600A68024317
:102CA0000A6070476D490028086802D040F0800033
:102CB00001E020F08000086070476849002808683B
:102CC00002D020F4004001E040F40040086070476A
:102CD000624A08B5103202EB80000090016008BD26
:102CE0005E4908B5103101EB80000090006808BD16
:102CF0005A490A6822F480320A600A6802430A606C
:102D0000704756490A6822F400320A600A68024392
:102D10000A60704751490A6822F480220A600A68F2
:102D200002430A60704770B54C4C0022CA231C3C19
:102D3000236053232360494B343B1D682D0707D57F
:102D40009D141E68360703D5AA4201D0521CF8E72D
:102D50001A6812070DD4414A383A1268D20608D4CC
:102D600001433E4814380160FFF756FB10B10120C3
:102D700000E00020FF21216070BD30B5374DCA2230
:102D80001C3D2A6053222A60344B20F00404383B57
:102D90000029324A196800F0040004D02143196068
:102DA0001168014303E0A143196011688143116078
:102DB000FF20286030BD02462849002034390968C8
:102DC000274B1940114200D00120704780B240F0DB
:102DD0008000C14321483438026802F08002114368
:102DE000016070471D4910B50968002301F0040215
:102DF0001A493839096802EAD0340140214302EA0D
:102E000010421143174A126802EA101003D000045E
:102E1000000C00D00123184610BDC0F30F1040F085
:102E20008000C1430F48026802F080021143016034
:102E30007047002103E0491C0A38C9B2C0B20A2811
:102E4000F9D2090740EA11607047010901EB8101DD
:102E500000F00F0000EB4100C0B270474028004076
:102E60007F7F01000C280040C84910B5884202D17C
:102E70000121841424E0C649884202D101210414AE
:102E800004E0C44988420AD10121C4132046FFF757
:102E90003CFA2046BDE810400021FFF736BABE4993
:102EA000884202D1012144140AE0BC49884202D17F
:102EB00001210C0504E0BA4988420AD101214C05E0
:102EC0002046FFF72CFA2046BDE810400021FFF70E
:102ED00026BA10BD30B502884C8802F441530A88E6
:102EE000CD8822438C882C4322430C8922434C8971
:102EF00022438C892243CC8922431A430280828B4D
:102F000022F400628283098A018230BDF0B5022278
:102F1000848B00234FF240052C4084830284848BF1
:102F20008D68022D51D08A883AB320224B884FF603
:102F3000FF75202B01D805EA42029A4B1E68360223
:102F400003D51E6826F400061E60964B7C331E686F
:102F50001B68C6F38817DFF84CC2C3F30276ACF1E6
:102F6000040CDCF80030DCF800C003F03F035FEA3B
:102F70004C2C04D5DFF830C203E01022D6E7DFF88E
:102F80002CC2BCFBF3F37B43B3FBF6F3CE88B6F560
:102F9000007F2AD05201B3FBF2F200BF02EB8202A3
:102FA0008B685200B2FBF3F2521D92B20A23B2FBBD
:102FB000F3F202F00103D21AC2F34F0205EA03232F
:102FC000951EFE2D01D302220023CD881A431543FE
:102FD00005840A884B881A438B8889890B431A43D6
:102FE000224342F400618183F0BD1A0AD6E7002132
:102FF000018041808180C180018141818181C181C5
:103000000721018270470021018041808180C180B9
:1030100002228260818170470029018802D041F03C
:10302000400101E021F04001018070470029818BBF
:1030300002D041F4806101E021F480618183704716
:10304000028822F40062028002880A4302807047EC
:10305000B1F5804F018803D021F480410180704791
:1030600041F48041FAE7A1F57E420188FF3A02D09F
:1030700041F4807101E021F48071018070470029E2
:10308000818802D041F0040101E021F00401818037
:1030900070470029818802D041F0100101E021F041
:1030A00010018180704730B5838B00224FF24004BD
:1030B0002340838302230384848B0B884FF4807521
:1030C000B3F5007F00D003B92A464B888D888989E3
:1030D0002B4311430B43234343F40061818330BDF1
:1030E00080897047818170470029018802D041F4AE
:1030F000005101E021F4005101807047018841F442
:10310000805101807047012901D0008B7047808A6F
:103110007047008A7047002A828801D00A4300E085
:103120008A4382807047090901238B40002A8288E4
:1031300099B201D00A4300E08A4382807047024678
:10314000002012890A4200D001207047C943018142
:10315000704710B501F00F040122034602FA04F48F
:10316000002009098A4091B29A88A4B20A401989BC
:10317000214202D0002A00D0012010BD01F00F0230
:1031800001219140C9430181704700000030014096
:1031900000380040003C0040003401400050014035
:1031A000005401400838024000127A000024F40064
:1031B000FE4910B5884206D101210846FFF7AFF855
:1031C000002101205BE0B0F1804F09D0F84988422E
:1031D0000DD101210220FFF798F80021022070E0B4
:1031E00001210846FFF791F80021012069E0F1492B
:1031F000884206D101210420FFF787F8002104202E
:103200005FE0ED49884206D101210820FFF77DF8F3
:103210000021082055E0E949884206D1012110200B
:10322000FFF773F8002110204BE0E549884206D1F2
:1032300001212020FFF769F80021202041E0E14929
:10324000884206D101210220FFF769F800210220FF
:1032500015E0DD49884202D101210C040AE0DB4976
:10326000884202D101214C0404E0D94988420AD1A4
:1032700001218C042046FFF752F800212046BDE8CA
:103280001040FFF74CB8D349884206D101214020B5
:10329000FFF73BF80021402013E0CF49884206D1D8
:1032A00001218020FFF731F80021802009E0CB497F
:1032B00088420AD1841501212046FFF726F8002113
:1032C0002046BDE81040FFF720B810BD30B5028899
:1032D000B64BBC4C98420DD0A0420BD0B0F1804F01
:1032E00008D0B34DA84205D0B24DA84202D0B24D8D
:1032F000A84203D122F070054A882A43AF4DA84264
:1033000006D0AF4DA84203D022F440750A892A4363
:1033100002804A68C2620A880285984201D0A042AF
:1033200001D1897A01860121818230BD4FF0FF31C0
:1033300041600021018001814180817270470185D7
:1033400082827047028822F070020A43028070472E
:1033500041627047C1627047406A7047008D704794
:103360000029018802D041F0020101E021F00201B0
:10337000018070470029018802D041F0040101E07A
:1033800021F00401018070470029018802D041F03A
:10339000800101E021F0800101807047028822F065
:1033A0000802028002880A4302807047028822F4E1
:1033B0004072028002880A43028070470029018817
:1033C00002D041F0010101E021F0010101807047CC
:1033D00030B5028C22F001020284028C8388048BB7
:1033E00022F0020224F073050C882C438D891543CA
:1033F0004A882A436D4DA84202D0724DA8420DD191
:1034000022F00805CA8923F440732A4322F00405F8
:103410008A882A430D8A1D434B8A2B438380048369
:1034200089684163028430BD70B5028C22F01002BD
:103430000284028C8488038B0D8823F4E6464FF6C1
:10344000FF7303EA052535438E8922F0200203EA43
:10345000061616434A8803EA02123243534EB0421C
:1034600002D0584EB04215D122F08006CA8924F409
:10347000406403EA0212324322F040068A8803EADB
:10348000021232430E8A03EA860626434C8A03EA76
:10349000840434438480058389688163028470BD19
:1034A00070B5028C22F480720284028C8488838B33
:1034B0000D8823F073031D4322F400738E894FF6A9
:1034C000FF7202EA06261E434B8802EA03233343B7
:1034D000364EB04202D03B4EB04215D123F40066C6
:1034E000CB8924F4405402EA0323334323F4806657
:1034F0008B8802EA032333430E8A02EA0616264328
:103500004C8A02EA04143443848085838968C16349
:10351000038470BD70B5028C22F480520284048C46
:103520008288838B0D8823F4E6464FF6FF7303EA07
:103530000525354324F400568C8903EA04343443CA
:103540004E8803EA06362643184CA04202D01D4C92
:10355000A04205D122F480440A8A03EA821222435F
:103560008280858389680164068470BD00210180A2
:103570004180818081608181C18101824182704767
:1035800030B50124058C00F118038C40A543058457
:1035900031B308292CD0091FC1F34E00184401682B
:1035A00048F6FF731940016001681AE0000001400D
:1035B0000004004000080040000C004000100040E3
:1035C000001400400004014000400140004401405C
:1035D0000048014000180040001C0040002000404E
:1035E00006E04FF6FF7303EA02221143016030BD8B
:1035F00003EB510001684FF68F73194001600168B9
:10360000F3E74163704781637047C16370470164AA
:103610007047028B22F070020A4302837047028BCC
:103620004FF6FF7322F4E04203EA012111430183C4
:103630007047828B22F070020A4382837047828B2C
:103640004FF6FF7322F4E04203EA01211143818324
:103650007047028B22F008020A4302837047028BF4
:103660004FF6FF7322F4006203EA01211143018344
:103670007047828B22F008020A4382837047828B54
:103680004FF6FF7322F4006203EA012111438183A4
:103690007047028B22F004020A4302837047028BB8
:1036A0004FF6FF7322F4806203EA01211143018384
:1036B0007047828B22F004020A4382837047828B18
:1036C0004FF6FF7322F4806203EA012111438183E4
:1036D0007047028B22F080020A4302837047028BFC
:1036E0004FF6FF73C2F30E0203EA01211143018377
:1036F0007047828B22F080020A4382837047828B5C
:103700004FF6FF73C2F30E0203EA012111438183D6
:103710007047028C22F002020A4302847047028C36
:1037200022F008020A4302847047028C4FF6FF73AE
:1037300022F0200203EA0111114301847047028C38
:103740004FF6FF7322F0800203EA01111143018456
:103750007047028C4FF6FF7322F4007203EA0121D6
:10376000114301847047028C4FF6FF7322F400620C
:1037700003EA0121114301847047028C4FF6FF7365
:1037800022F4005203EA013111430184704710B55D
:103790000123048C8B409C430484038C8A40134394
:1037A000038410BD10B50423048C8B409C43048417
:1037B000038C8A401343038410BD828B22F4406241
:1037C0008283828B4FF6FF7303EA01210A438283CF
:1037D0007047828B22F00C028283828B0A438283A1
:1037E0007047028B22F440620283028B4FF6FF7314
:1037F00003EA01210A4302837047F0B5048C24F0E8
:1038000010040484078B068C4FF6FF7404EA01153C
:1038100027F4734704EA0331394304EA02220A43D6
:1038200026F0A001294341F0100102830184F0BD7C
:10383000028B22F00C020283028B0A430283704740
:103840002DE9F0410D460E884988AA882B89044647
:103850000EB3042E26D0082E268C4FF6FF7028D0EB
:1038600026F480562684A78B268C00EA022200EAE2
:10387000013127F473473A4300EA0330104326F43A
:1038800020420A4342F48051A0832184E9882046E3
:10389000BDE8F04191E700F062F9E9882046BDE813
:1038A000F041C5E7FFF7A9FFE9882046BDE8F041F0
:1038B00097E726F480762684A78B268C00EA0121E0
:1038C00000EA0310104327F0F307384326F4206280
:1038D0000A4342F48071A0832184E9882046BDE830
:1038E000F04176E700210180418001228280C18081
:1038F000018170472DE9F0410C46002649880746B2
:10390000012501B90226A288012A00D102252088BA
:1039100023890028384610D0FFF76FFFE18838462A
:10392000FFF75FFF23892A463146384600F017F932
:10393000E1883846BDE8F0417AE700F010F9E18807
:103940003846FFF775FF23892A4631463846FFF788
:1039500054FFE1883846BDE8F04142E7406B7047CC
:10396000806B7047C06B7047006C704710B50A8859
:103970004B88CC881A438B8823431A430B891A43FC
:103980004B8989891A430A43A0F8442010BD0021BD
:10399000018041808180C1800181418181817047A6
:1039A000002930F8441F02D041F4004101E0C1F386
:1039B0000E01018070470029818802D041F0040186
:1039C00001E021F00401818070470029818802D044
:1039D00041F0010101E021F0010181807047002ADE
:1039E000828901D00A4300E08A4382817047818244
:1039F000704702460020128A0A4200D00120704718
:103A0000C9430182704702460020138A92890B4203
:103A100002EA010202D0002A00D001207047C94307
:103A2000018270471143A0F848107047002A82892C
:103A300001D00A4300E08A438281704700298188CF
:103A400002D041F0080101E021F0080181807047B7
:103A5000018921F0070101817047028922F070027B
:103A60000A430281704700B50346FFF7F6FF188945
:103A700040F00700188100BD70B516460D4660295C
:103A800004464FF0010231460AD000F068F829469A
:103A90002046FFF7E2FF208940F00700208170BD3B
:103AA000FFF7ABFEF3E730B504894FF6FF7505EA83
:103AB00003231343E4B20B432343038130BD10B50A
:103AC0000446FFF7F0FF208940F07700208110BD09
:103AD00010B50446FFF7E7FF208940F480402081BD
:103AE00010BD828822F07002828082880A43828020
:103AF0007047028922F00702028102890A4302818B
:103B00007047028922F08002028102890A43028101
:103B1000704770B50589048B068C25F007050D43A9
:103B20004FF6FC410C4040F201110C434FF6FF717F
:103B300001EA031126F02206114331430581048373
:103B4000018470BD0029818802D041F0800101E02C
:103B500021F0800181807047A0F85010704770B547
:103B6000048C24F001040484058B048C4FF6FF764A
:103B700006EA0313134325F0F3052B4324F00A024E
:103B80000A4342F001010383018470BDCD4910B5A1
:103B9000884206D101211020FEF7C1FB0021102030
:103BA00020E0C949884202D101214C0429E0C749DB
:103BB000884202D101218C0423E0C549884202D108
:103BC0000121CC041DE0C349884202D101210C052A
:103BD00017E0C149884209D101212020FEF79FFB4F
:103BE00000212020BDE81040FEF799BBBB49884268
:103BF00002D101218C0704E0B94988420AD1012190
:103C000044052046FEF781FB2046BDE81040002118
:103C1000FEF77BBB10BD7FB50446008A0D4620F43D
:103C20004051E88808432082A08941F20C61884312
:103C3000A9882A8911436A8902431143A181A08A74
:103C400020F44071A8890843A0826846FEF778FAFC
:103C50009C48844202D0A048844201D1039800E0ED
:103C60000298A189090400EBC00101EB001029684A
:103C700001D5490000E08900B0FBF1F26420B2FBFD
:103C8000F0F109010B096FF018056B4302EB830299
:103C9000A3891D044FF0320306D503EBC202B2FB29
:103CA000F0F000F0070005E003EB0212B2FBF0F0C9
:103CB00000F00F00084320817FBD4FF416510160D2
:103CC00000218180C18001810C2242818181704765
:103CD00010B5028A4C8822F470630A8822438C88CB
:103CE000C9880C4322431A43028210BD002101807F
:103CF00041808180C18070470029818902D041F4D0
:103D0000005101E021F4005181817047028B02F4DF
:103D10007F420283028B0A43028370470029818914
:103D200002D041F4004101E0C1F30E0181817047EE
:103D30000029818A02D041F4006101E021F4006190
:103D400081827047C1F30801818070478088C0F389
:103D500008007047028A22F00F020282028A0A4398
:103D6000028270470029818902D041F0020101E0FE
:103D700021F0020181817047828922F400628281F0
:103D800082890A4382817047028A22F020020282DD
:103D9000028A0A43028270470029018A02D041F454
:103DA000804101E021F4804101827047818941F026
:103DB0000101818170470029818A02D041F0080108
:103DC00001E021F0080181827047028BD2B20283A8
:103DD000028B42EA0121018370470029818A02D0C7
:103DE00041F0200101E021F020018182704700298B
:103DF000818A02D041F0100101E021F0100181829E
:103E00007047828A22F004028282828A0A43828276
:103E100070470029818A02D041F0020101E021F0BF
:103E2000020181827047002A828A01D00A4300E0A1
:103E30008A438282704710B5C1F3421301F01F0418
:103E40000121A140012B07D0022B07D01430002AFA
:103E5000026805D00A4304E00C30F8E71030F6E7BA
:103E60008A43026010BD0246002012880A4200D038
:103E700001207047C9430180704730B501F01F022F
:103E800001240025C1F3421304FA02F2012B0FD0E2
:103E9000022B0FD0838A4FEA11210088134204FAC3
:103EA00001F400EA040001D000B10125284630BD2C
:103EB0008389F0E7038AEEE70A0A01219140C943AA
:103EC000018070470010014000440040004800405D
:103ED000004C0040005000400014014000780040B9
:103EE000007C004006E000BF00BF022100BF491C6B
:103EF0002129FBD3401EF6D2704710B5034600229D
:103F00004FF47A7403E02046FFF7ECFF521C9A420C
:103F1000F9D310BD10B5034600224FF47A7403E0C4
:103F20002046FFF7DFFF521C9A42F9D310BD000074
:103F3000F0B587B001211020FEF7BFF90121084636
:103F4000FEF793F9844E072209213046FDF774FFEE
:103F500007220A213046FDF76FFF4FF4C06004903E
:103F600002208DF8140003208DF8150000248DF830
:103F7000164001258DF8175004A93046FDF7D2FEF2
:103F80004FF4E13000900C20ADF80A00734EADF80C
:103F90000640ADF80C40ADF80840ADF80440694665
:103FA0003046FFF738FE4FF4A060FDF7F7FD40F212
:103FB0002557012239463046FFF73DFF25208DF871
:103FC00018008DF81B508DF819408DF81A4006A87E
:103FD000FDF7E9FD012239463046FFF72CFF0122AB
:103FE00040F224413046FFF726FF01213046FFF71B
:103FF00083FE07B0F0BD10B50446FFF7A3FE4021D5
:104000002046FFF730FF0028F9D010BD0FB44FF065
:10401000FF3170B5524C206803F040FA01281BD1E3
:1040200005AA504804990AF037F84E4809F0B0F84C
:1040300082B2002049494B4B06E00D886D06FCD545
:104040001D5C8D80401C80B29042F6D300231A463E
:104050001946206802F0CDFF70BC5DF814FB10B566
:104060000446C1B23D48FFF7C6FF204610BD10B55B
:104070003DA008F068FA3FA008F065FA40A008F0FB
:1040800062FA41A008F05FFA41A008F05CFA42A091
:1040900008F059FA42A008F056FA43A008F053FA83
:1040A00043A008F050FA46A008F04DFA49A008F0E5
:1040B0004AFABDE810404CA008F045BA2DE9F0419D
:1040C000264C40F2255739462046FFF7D6FE254EAE
:1040D0004B4D68B12046FFF739FE01462878315430
:1040E000401C287039462046FFF7C7FE0128F9D04A
:1040F00040F224412046FFF7C0FE002829D041A706
:104100000FF20C182088A0882878002434543846F0
:1041100009F03EF802463946124809F04EF810B947
:104120003EA008F010FA404609F032F80246414637
:104130000C4809F042F830B93CA009F06FFF00F0DC
:10414000EBFCFFF794FF4FF48071064808F0E1FFA5
:104150002C70BDE8F081000000000240001001401A
:104160004C0000200004002064657673746174655F
:1041700000000000666C61675F65676761646400EA
:104180007175657565300000717565756531000084
:104190007175657565320000717565756533000070
:1041A000717565756534000071756575653500005C
:1041B00074696D655F6E657374696E6700000000F9
:1041C0004C6F72615F4275666665725F53746F72A1
:1041D000650000004C6F72615F4275666665725FD4
:1041E00053656E64000000004C6F72615F4275663B
:1041F0006665725F4C61737453656E640000000005
:10420000940000207265736574687837313100005E
:1042100064656C7265636F7665720000485837316B
:10422000315F506172616D657465720065617379AB
:10423000666C6173685F64656C7265636F766572E6
:104240000A0000002DE9F04115460E4607460024FD
:1042500005E0315D3846FFF7CEFE641CE4B2AC42A7
:10426000F7D340213846FFF7FEFD0028F9D0BDE81E
:10427000F081F0B5012187B00846FDF7F6FF012176
:104280004804FEF710F8CD4F072202213846FDF70B
:10429000D3FD072203213846FDF7CEFD00248DF81B
:1042A000064001268DF80760022504208DF8045091
:1042B00000908DF8055069463846FDF733FD08201B
:1042C00000908DF8045069463846FDF72BFD4FF4F9
:1042D000E1300290ADF810400C20B94DADF80C4023
:1042E000ADF81200ADF80E40ADF8144002A9284612
:1042F000FFF791FC26208DF8180007208DF8190093
:104300008DF81A408DF81B6006A8FDF74CFC0122C1
:1043100040F225512846FFF78EFD012240F224414C
:104320002846FFF788FD01212846FFF7E5FC07B086
:10433000F0BD10B5FFF79DFFBDE81040A1A009F04A
:104340006DBE0722A6499E487CE7A54910B5072205
:10435000C91D9B48FFF776FF0A20FFF7CEFDA04856
:10436000001F0021427812B14170817010BD827827
:10437000521CD2B282700A2AF8D381709949042063
:104380004870BDE8104098A009F048BE2DE9F047FC
:104390004FF000089F484146425CBB2A05D14218B5
:1043A0005278BB2A01D00B4603E0491CC9B205294B
:1043B000F2D38B4C241F53B121780022C91A04E098
:1043C000D518455D8554521CD2B29142F8DC017873
:1043D000914DBB2906D14178022903D181468078CD
:1043E000222801D0002655E08A490C2208318A464D
:1043F00001F5BE7008F0E1FE08B1002713E0BDE84A
:10440000F04786A009F00ABE07EB870005EB8000A5
:1044100006460C22514608F0D0FE58B13069401CC7
:1044200030617F1CFFB2E0788742EDD3B8F1000F16
:1044300008D032E0F0684FF00108401CF060002026
:104440003061EEE7E078062803D377A009F0E6FDB7
:1044500023E000EB8001D9E9023605EB8101D9F8B0
:1044600010200B60C1E90162CA68521C401CCA607E
:10447000E07012E006EB8600674905EB8000074616
:104480000C22783108F099FE10B13869401C38616F
:10449000761CF6B2E0788642ECD3E078B8B100261C
:1044A00012E000BF06EB860005EB800001691429CD
:1044B00008D9142108F02DFE68A009F0AFFDE078BE
:1044C000401EE070761CF6B2E0788642EAD3002106
:1044D000E278084600EB800305EB8303DB681BB939
:1044E000491C062900D10022401CC0B20628F1D385
:1044F000E270BDE8F0872DE9F0414749026880315C
:1045000080464A6042688A60354D80680024424F88
:104510002D1FC86013E000BF04EB840007EB800090
:1045200006460C22414608F048FE30B930461421B8
:1045300008F0EFFDE878401EE870641CE4B2E8780B
:104540008442E9D393E610B57821334808F0E1FDC1
:1045500023490020091FC87010BD2DE9F041184EF5
:1045600040F2255739463046FFF787FC1C4C294D51
:10457000241F50B139463046FFF79EFC3046FFF706
:10458000E5FB21786854491C217040F224413046F3
:10459000FFF773FC002810D030880948001D008800
:1045A00001206070207800262E54FFF7EFFE4FF4B4
:1045B0008071184808F0ADFD267058E600000240F2
:1045C00000440040524649445F50616E656C20696A
:1045D0006E697420737563636573730A000000006D
:1045E000990000209A0300202D2D2D2D2D2D2D2DED
:1045F0002D2D2D2D2D2D2D2D2D2D2D2D2D2D2D2DEB
:104600002D2D2D2D2D2D4552524F525F524649448E
:104610000A00000000050020000600206E65676C9F
:104620006563740A000000002D2D2D2D2D2D2D2DDC
:104630002D2D2D2D2D2D2D2D2D2D2D2D2D2D2D2DAA
:104640002D2D2D2D524649445F49445F62756620E9
:1046500069732066756C6C0A00000000524649447C
:1046600020636C65616E0A001CB50020FEF738FB04
:1046700042F22724A04228D0ECA009F0CFFC002071
:104680008DF8030015218DF8001034218DF80110EC
:104690008DF802006946FDF7BEFF21460020FEF7B7
:1046A00017FB02208DF804000D208DF8060008206D
:1046B0008DF8050018208DF8070001A90020FEF7ED
:1046C00025F821460020FEF703FB1CBD2DE9FC4127
:1046D00015460746DDE908021C460E4600230A99E6
:1046E0008DF8033008308DF800008DF801208DF82A
:1046F000021069461846FDF78EFF8DF804408DF8CC
:1047000006508DF805608DF8077001A90020FDF7AF
:10471000FDFFBDE8FC810EB501210807FDF7C3FDD3
:104720000120FDF7BBFB0120FDF796FC4120FDF7C2
:104730005BFC0028FAD04FF48070FDF744FD0120A7
:10474000FDF756FDFDF768FE7F200190FF200290E7
:10475000002000906846FDF7FAFE20B1B7A000BF28
:10476000FFF754FC0EBDBAA0FAE77FB50024ADF800
:104770000C4001210807FDF796FD0120FDF78EFB97
:104780000120FDF769FC4FF4A0454120FDF72CFC0A
:10479000BDF80C10491CADF80C1010B101282AD03E
:1047A00003E0BDF80C00A842EFD1B6A0FFF72EFC45
:1047B0000120FDF75DFC6120FDF716FC0028FAD012
:1047C000B9A0FFF723FC4FF4007000BFFDF7FBFC1E
:1047D0000120FDF70DFDFDF71FFE7F200190FF205A
:1047E000029000946846FDF7B2FE002802D1B4A002
:1047F000FFF70CFC7FBDBAA0FFF708FC4FF48070F8
:10480000E4E710B5FFF787FFBDE810402CE700B5DF
:104810008DB00CA90020FDF74FFF69460020FDF781
:10482000C4FF9DF8320001909DF8310002909DF880
:10483000300003909DF8020004909DF80100401E96
:1048400005909DF8030064300690AB48006801A80D
:1048500008F028FA0DB000BD00B58DB00CA90020FD
:10486000FDF72AFF69460020FDF79FFF9DF8320003
:1048700001909DF8310002909DF8300003909DF862
:10488000020004909DF80100401E05909DF8030071
:10489000643006909848006801A808F003FAD9E748
:1048A00010B58EB004460CA90020FDF705FF0BA93A
:1048B0000020FDF77AFF9DF8320000909DF830103F
:1048C0009DF8310008390190029101D4084602E0B8
:1048D00001F118000290182801DB183802909DF8A9
:1048E0002E0003909DF82D002C22401E04909DF870
:1048F0002F00694664300590204608F0F1FB0EB0A9
:1049000010BD2DE9F3478EB04FF00009CDF80090AF
:10491000DDE90E014FF4E142821841F10000CDE9DA
:104920000E20CDF8049002A90EA808F075F902AE89
:10493000DDE9064096E82E00641C00F26C70012C44
:1049400001D0022C01D1401E0C34661C06EB460639
:10495000052796FBF7F605EB44073E44C7170644C8
:1049600000EB977706EBA706642790FBF7FCA6EB16
:104970000C064FF4C87C90FBFCFC66444FF0070C1F
:1049800096FBFCF80CFB1866761C96FBFCF80CFBFF
:10499000186690FBF7FC8DF800308DF8012007FBBE
:1049A0001C078DF803908DF8021069460020FDF772
:1049B00032FE8DF804608DF805408DF806508DF8B4
:1049C000077001A90020FDF7A1FE10B0BDE8F08737
:1049D00010B58EB004460CA90020FDF76DFE0BA9A2
:1049E0000020FDF7E2FE9DF8320000909DF83100B6
:1049F0009DF8301001900291002901DA18310291DE
:104A0000182902DBA1F1180002909DF82E000390F6
:104A10009DF82D002C22401E04909DF82F00694621
:104A200064300590204608F05BFB68E75254432051
:104A300052455345542054494D450A005254432091
:104A4000494E495420535543434553530A000000EF
:104A50002D2D2D2D2D2D2D2D2D2D2D2D2D2D2D2D86
:104A60002D2D2D2D2D2D2D2D2D2D2D2D2D2D2D2D76
:104A70002D52544320494E4954204552524F520D15
:104A80000A0000000A0D204C534520E69585E99A5E
:104A90009CEFBC8CE8BDACE4B8BAE4BDBFE794A819
:104AA0004C5349200D0A00000A0D204C534920E5C3
:104AB00090AFE58AA8E68890E58A9F200D0A00005D
:104AC0000A0D2052544320E697B6E9929FE5889D4F
:104AD000E5A78BE58C96E5A4B1E8B4A5200D0A0006
:104AE0000A0D204C534520E590AFE58AA8E6889052
:104AF000E58A9F200D0A0000042800400B4845F27B
:104B0000555101600021416041F2883282604CF6CB
:104B1000CC42026001607047044845F25551016083
:104B20004900016000210160704700000030004032
:104B30002DE9F041FB4C4FF4805607466660FA4D74
:104B400003E06068411E616010D302212846FEF731
:104B5000F6FA0028F5D039462846FEF7C3FA666013
:104B600009E06168481E606005D2012000F095FBF5
:104B7000C0B2BDE8F08101212846FEF7E0FA002826
:104B8000EFD02846FEF7ACFAF2E72DE9F041E74E08
:104B9000002201213046FDF744F99F20FFF7C8FFAE
:104BA000FF20FFF7C5FF0546FF20FFF7C1FF0446C2
:104BB000FF20FFF7BDFF0746012211463046FDF7F3
:104BC00030F9280440EA04203843D2E7F0B587B032
:104BD00001210220FDF749FB01218E033046FDF73C
:104BE00062FBD24F05220D213846FDF725F905223B
:104BF0000E213846FDF720F905220F213846FDF732
:104C00001BF902258DF8055070108DF80450002412
:104C100000908DF806408DF8074069463846FDF74C
:104C200081F8694638460096FDF77CF8A8030090A5
:104C300069463846FDF776F8012600968DF804603F
:104C400069463846FDF76EF8012211463846FDF7F1
:104C5000E8F8ADF808404FF48270ADF80A00ADF8FE
:104C600010602802ADF81440ADF80C40ADF8120009
:104C7000ADF816400720AC4CADF81800ADF80E505A
:104C800002A92046FEF726F901212046FEF7C4F9C5
:104C9000FFF77BFF0146A6A009F0C0F907B0F0BD01
:104CA00070B5A24D002201212846FDF7BAF8052073
:104CB000FFF73EFF9B4CA8146060FF20FFF738FF12
:104CC00061684A1E626004D2BDE87040042000F0B2
:104CD000E4BAC007F1D12846BDE870400122114670
:104CE000FDF79FB810B5914C002201212046FDF739
:104CF00098F80620FFF71CFF20460122BDE810406F
:104D00001146FDF78EB870B50446FFF7EBFFFFF7CD
:104D1000C7FF864D002201212846FDF782F820209A
:104D2000FFF706FFC4F30740FFF702FFC4F30720B5
:104D3000FFF7FEFEE0B2FFF7FBFE01221146284618
:104D4000FDF76FF8BDE87040AAE770B501F6FF7196
:104D500004460D0B04E02046FFF7D5FF04F5805410
:104D60006D1EEDB2F7D270BD70B50446FFF7BAFF05
:104D7000FFF796FF6D4D002201212846FDF751F8FF
:104D80002020FFF7D5FEC4F30740FFF7D1FEC4F3A0
:104D90000720FFF7CDFEE0B2FFF7CAFE0122114661
:104DA0002846FDF73EF8BDE8704079E710B5FFF7FB
:104DB00099FF5E4C002201212046FDF732F8C72002
:104DC000FFF7B6FE012211462046FDF72AF8BDE89E
:104DD000104065E72DE9F04114460D460646FFF701
:104DE00081FF524F002201213846FDF71AF80220B8
:104DF000FFF79EFEC5F30740FFF79AFEC5F30720B5
:104E0000FFF796FEE8B2FFF793FEB4F5807F07D96F
:104E10004EA009F003F9FF243078FFF789FE761CD5
:104E2000641EA4B2F8D2012211463846FCF7F9FFFD
:104E3000BDE8F04134E72DE9F04707460E4611F092
:104E4000FF00C0F10001CDB24FEA122402F0FF09C9
:104E50004FF4807A13D0F0B24042C0B206EB0008A3
:104E60000CB3501B80B2040A00F0FF092A463146F9
:104E70003846FFF7AFFF3D44464657462AE06CB13F
:104E80005546641EE4B20CD32A4631463846FFF735
:104E9000A1FF06F5807607F58077F2E731463846C0
:104EA00021E04A46FAE7A945F8D9A9EB0500C4B2C2
:104EB0002A4631463846FFF78DFF4146781922468B
:104EC00011E03A4631462846FFF784FF05F5807524
:104ED00006F58076641EE4B2F3D2B9F1000005D085
:104EE000024631462846BDE8F04773E7BDE8F08743
:104EF0002DE9F0410D4F14460D46064600220121D2
:104F00003846FCF78EFF0320FFF712FEC5F307407B
:104F1000FFF70EFEC5F30720FFF70AFEE8B2FFF722
:104F200007FE32E0A80000200038004000040240E4
:104F3000464C41534820494E49542053554343451C
:104F400053532C2049443A2025580A003C3C2D4616
:104F50004C4153482D4552524F522D3E3E20535006
:104F6000495F464C4153485F5061676557726974A9
:104F70006520746F6F206C61726765210A00000004
:104F8000FF20FFF7D5FD06F8010B641EA4B2F7D28F
:104F90003846BDE8F04101221146FCF742BF70B52A
:104FA000C14D002201212846FCF73BFFAB20FFF753
:104FB000BFFDFF20FFF7BCFDFF20FFF7B9FDFF207D
:104FC000FFF7B6FDFF20FFF7B3FD044601221146AF
:104FD0002846FCF726FF204670BD10B50446002287
:104FE0000121B148FCF71DFF0320FFF7A1FDC4F329
:104FF0000740FFF79DFDC4F30720FFF799FDE0B2DE
:10500000BDE8104094E5FF2092E52DE9F041A74C62
:105010004FF4805607466660A54D05E06068411E66
:10502000616001D2022010E002212846FEF787F8D5
:105030000028F3D039462846FEF754F8666008E0A9
:105040006168481E606004D20320BDE8F04100F0B2
:1050500024B901212846FEF772F80028F0D028462E
:10506000BDE8F041FEF73CB810B58F4C002201219D
:105070002046FCF7D6FEB920FFF75AFD2046012254
:10508000BDE810401146FCF7CCBE10B5864C00229E
:1050900001212046FCF7C5FEAB20FFF749FD204665
:1050A0000122BDE810401146FCF7BBBE814910B596
:1050B0000020C1F8F00A4FF42F617E4808F029F86B
:1050C000BDE810407CA008F0A9BF2DE9F04FADF677
:1050D000F42D40F6F42A4FF4A045544600274FF42F
:1050E0008058E9464FF4A03B4646B44200D82646D5
:1050F000B2B209EB07002946FFF7FAFE2A4631460D
:1051000078A008F08BFF374405F58055A41B01D02B
:105110005D45E9D952466946664807F0E1FF654CAE
:10512000D4F8F01A652905D3FFF7C0FF7848D4F802
:10513000F01A00E077A008F071FF0DF6F42DBDE83D
:10514000F08F08B54FF4A04101226846FFF7D0FE6A
:105150009DF80000FF2801D0012008BD002008BDF7
:1051600010B5FFF7EEFF514C28B1FFF7AEFF01205D
:10517000207074A002E0002020707FA0BDE81040E5
:1051800008F04CBF2DE9F04FADF6F42D40F6F424B5
:105190004FF4A04822464749684607F0A1FF4FF068
:1051A000010A002508EB05363046FFF7ACFD314615
:1051B00080A008F033FF6D1C5545F3DB4646002701
:1051C0004FF4805BE94602E05D46AC4200D82546DC
:1051D000AAB209EB07003146FFF72DFE32462946F9
:1051E00082A008F01BFF2F4406F58056641BEBD10C
:1051F0004246514688A008F011FF9EE77FB50400A3
:105200000AD02C4DD5F8F01A64290BDB04B0924873
:10521000BDE8704008F002BF04B090A0BDE8704047
:1052200008F0FCBEC1EBC10005EB80001C2221464A
:1052300007F056FFD5F8F00A401CC5F8F00A05F54E
:105240002F65FFF79FFF04F1100228680ECACDE911
:105250000230CDE90012627821788D48E36808F0C9
:10526000DDFE7FBD2DE9F04110264FF4A04700245C
:1052700007EB04352846FFF746FD294685A008F0D0
:10528000CDFE641CB442F3DBFFF710FFFFF77AFF9B
:10529000BDE8F0418EA008F0C1BE10B5014699A04E
:1052A00008F0BCFE002010BD00040240A800002051
:1052B00000380040900600203C3C2D464C415348AD
:1052C0002D494E464F2D3E3E20456767207175653E
:1052D000756520636C656172656420696E2052415A
:1052E0004D0A00003C3C2D464C4153482D494E464A
:1052F0004F2D3E3E205265616420257520627974F1
:1053000065732066726F6D20307825580A000000A2
:105310009C0101083C3C2D464C4153482D494E46CA
:105320004F2D3E3E20456767207175657565206C81
:105330006F616465642C206C656E6774683A202523
:10534000640A00003C3C2D464C4153482D494E46D2
:105350004F2D3E3E20456767207175657565206C51
:105360006F616465642066726F6D20466C6173685E
:10537000204F4B5F4F4B0A003C3C2D464C4153485D
:105380002D494E464F2D3E3E204E6F2065676720CB
:10539000717565756520696E20466C6173682C2097
:1053A000696E697469616C697A656420656D707491
:1053B000790A00003C3C2D464C4153482D494E464D
:1053C0004F2D3E3E204572617365642073656374A2
:1053D0006F72206174203078255820666F722065C6
:1053E00067672071756575650A0000003C3C2D46B5
:1053F0004C4153482D494E464F2D3E3E2057726F2B
:10540000746520257520627974657320746F20306F
:105410007825580A000000003C3C2D464C4153487A
:105420002D494E464F2D3E3E2045676720717565DC
:1054300075652073617665642C202564207365632F
:10544000746F727320757365642C20616464723D9F
:10545000307825580A000000F00001083C3C2D4639
:105460004C4153482D4552524F522D3E3E204174DF
:1054700074656D707420746F20616464204E554CA7
:105480004C2065676720746F2071756575650A002B
:10549000380101083C3C2D464C4153482D494E46AD
:1054A0004F2D3E3E204572617365642073656374C1
:1054B0006F72203078255820666F722065676720EC
:1054C00071756575652072657365740A000000006A
:1054D0003C3C2D464C4153482D494E464F2D3E3EB7
:1054E0002045676720717565756520726573657401
:1054F00020696E20466C61736820616E64205241A1
:105500004D0A00003C3C2D464C4153482D4552521B
:105510004F522D3E3E2053504920E7AD89E5BE85D0
:10552000E8B685E697B6216572726F72436F64655F
:10553000203D2025640A000010B50446FEF702FC59
:1055400040212046FEF78FFC0028F9D010BD0FB493
:105550004FF0FF3170B5FE4C206801F09FFF01282D
:105560001FD105AAFB48049908F096FDF94807F0F9
:105570000FFE81B2F84A0020F64B151D06E0168892
:105580007606FCD51E5C2E80401C80B28842F6D385
:10559000F04807F0BEFD00231A461946206801F0C6
:1055A00028FD70BC5DF814FB0FB4EA4870B505AA7D
:1055B000049908F071FDE74807F0EAFD81B2E64A78
:1055C0000020E44B141D06E015886D06FCD51D5C1B
:1055D0002580401C80B28842F6D3DE4807F099FD52
:1055E000DFE72DE9F0434FF6FF794A4648F2050C14
:1055F000012422E010F8016B00252B4604FA03F782
:10560000374206D0C3F1070704FA07F808F0FF078E
:105610003D435B1C082BF1DB09EA05235A404E464B
:105620000023150403D58CEA420292B201E006EA97
:1056300042025B1C082BF4DB491E0029DADC002047
:105640004FEA000104FA01F3134205D0C1F10F053E
:1056500004FA05F39BB21843491C1029F2DBBDE89C
:10566000F08370B50446BD48C078A0420CD0BB4D55
:10567000BBA0083555F8241008F0D0FC55F82410CC
:10568000BDE87040B9A062E770BDF0B5B3B00746A1
:10569000C821684607F03DFDB04D01202871022069
:1056A000FFF7DFFF0A20FEF728FC3A46B2A1684662
:1056B00008F0DEFC684607F06BFD01466846FFF720
:1056C00090FF030A0446C2B21E463946AEA0FFF759
:1056D0003EFF0A20FEF711FCB1A0FFF738FF0A20B9
:1056E000FEF70BFC287918B10020287133B0F0BD0B
:1056F000E2B233463946A4A0FFF729FFF6E770B5BA
:1057000005460C460220FFF7ACFF0A20FEF7F5FB2A
:105710002246691CA6A0FFF71AFFBDE870400A20C8
:10572000FEF7EBBB10B50320FFF79BFF0A20FEF747
:10573000E4FBBDE81040A44809E710B50320FFF7DB
:1057400090FF0A20FEF7D9FBBDE810409F48FEE617
:1057500010B50320FFF785FF0A20FEF7CEFBBDE85A
:1057600010409B48F3E610B50C4601EBC40100EB7A
:105770008100001F07F04AFA0420FFF772FF64203F
:10578000FEF7BBFB214693A0FFF7E1FEBDE810400A
:105790006420FEF7B2BB052063E710B50520FFF7D4
:1057A00060FF6420FEF7A9FBBDE8104092A0CEE6A2
:1057B00010B50520FFF755FFBDE8104094A0C6E6E0
:1057C00006204EE701204CE79CA0C0E61FB5FFF77E
:1057D0001EF8039003A807F019FA90E80E00009352
:1057E000CDE90121D0E90332416997A001F26C7142
:1057F000521CFFF7ACFE1FBD9FA0A8E6A5A0A6E621
:1058000070B5A9A0FFF7A3FE0A20FEF776FB534C64
:105810000025207808B125700BE06078401CC0B2EC
:1058200060700A2806D3A34903204870A2A008F09C
:10583000F5FB657070BD2DE9F041474E40F22557EC
:1058400039463046FEF719FBA64D444C68B1304648
:10585000FEF77CFA0146A0782954401CA070394616
:105860003046FEF70AFB0128F9D040F224413046C9
:10587000FEF703FB002823D030883748001D00883E
:1058800029780026242904D8012911D096A008F0EF
:10589000C5FB2878662802D0092805D008E068787A
:1058A000E0700120207003E094A008F0B7FB26719F
:1058B000A0784FF480712E548A4807F02AFCA67015
:1058C000BDE8F081F0B5012187B0C804FCF7EBFC1E
:1058D00001210420FCF7C9FC8B4E08220A21304626
:1058E000FCF7AAFA08220B213046FCF7A5FA4FF480
:1058F0004060049002208DF8140003208DF81500FC
:1059000000248DF8164001258DF8175004A9304663
:10591000FCF708FA4FF4E13000900C20ADF80A00D3
:105920000D4EADF80640ADF80C40ADF80840ADF8AE
:10593000044069463046FEF76EF94FF4A060FCF76C
:105940002DF940F22557012239463046DEE00000AD
:105950005800002084110020004C0040B0000020BE
:105960000A706167652025730A0000007061676531
:10597000202573FFFFFF00007172302E7478743D94
:1059800022257322000000007172302E7478743D5D
:10599000222573222563256301FEFEFE0000000020
:1059A000766973207172302C31FFFFFF0000000018
:1059B00074302E7478743D22E89B8B2025642F254B
:1059C0006422FFFFFF000000640201081C020108BE
:1059D000C002010874312E7478743D22E5BD93E550
:1059E000898DE89B8BE6A7BDE69C892564E9A29793
:1059F000E89B8B22FFFFFF0074302E7478743D22E9
:105A0000E6A0A1E58786E4B8AD22FFFFFF00000015
:105A100074302E7478743D22E6A0A1E58786E5AE49
:105A20008CE688902CE8AFB7E5B086E7A09DE7A0AC
:105A300081E58F96E587BA22FFFFFF0062656570FA
:105A400020313030FFFFFF006E6F6567672E6461A5
:105A500074652E7478743D22253034642F253032DD
:105A6000642F253032642D253032643A253032647B
:105A70003A256422FFFFFF006E6F6567672E743161
:105A80002E7478743D22E697A0E4BFA1E58FB7227B
:105A9000FFFFFF006E6F6567672E74312E74787498
:105AA0003D2222FFFFFF000073656E646D65FFFFFE
:105AB000FF0000009A0300202D2D2D2D2D2D2D2DC2
:105AC0002D2D2D2D2D2D2D2D2D2D2D2D2D2D2D2D06
:105AD0002D2D2D2D2D2D4552524F525F4C43440AF2
